{
  "contractName": "MissingPersonRegistry",
  "abi": [
    {
      "inputs": [],
      "stateMutability": "nonpayable",
      "type": "constructor"
    },
    {
      "anonymous": false,
      "inputs": [
        {
          "indexed": false,
          "internalType": "uint256",
          "name": "reportId",
          "type": "uint256"
        },
        {
          "indexed": false,
          "internalType": "string",
          "name": "fullName",
          "type": "string"
        },
        {
          "indexed": false,
          "internalType": "string",
          "name": "lastSeenDate",
          "type": "string"
        },
        {
          "indexed": false,
          "internalType": "string",
          "name": "lastSeenLocation",
          "type": "string"
        },
        {
          "indexed": false,
          "internalType": "string",
          "name": "photoUrl",
          "type": "string"
        },
        {
          "indexed": true,
          "internalType": "address",
          "name": "reporter",
          "type": "address"
        }
      ],
      "name": "NewReport",
      "type": "event"
    },
    {
      "inputs": [],
      "name": "reportCount",
      "outputs": [
        {
          "internalType": "uint256",
          "name": "",
          "type": "uint256"
        }
      ],
      "stateMutability": "view",
      "type": "function"
    },
    {
      "inputs": [
        {
          "internalType": "uint256",
          "name": "",
          "type": "uint256"
        }
      ],
      "name": "reports",
      "outputs": [
        {
          "internalType": "string",
          "name": "fullName",
          "type": "string"
        },
        {
          "internalType": "string",
          "name": "lastSeenDate",
          "type": "string"
        },
        {
          "internalType": "string",
          "name": "lastSeenLocation",
          "type": "string"
        },
        {
          "internalType": "string",
          "name": "photoUrl",
          "type": "string"
        },
        {
          "internalType": "address",
          "name": "reporter",
          "type": "address"
        },
        {
          "internalType": "bool",
          "name": "exists",
          "type": "bool"
        }
      ],
      "stateMutability": "view",
      "type": "function"
    },
    {
      "inputs": [
        {
          "internalType": "string",
          "name": "_fullName",
          "type": "string"
        },
        {
          "internalType": "string",
          "name": "_lastSeenDate",
          "type": "string"
        },
        {
          "internalType": "string",
          "name": "_lastSeenLocation",
          "type": "string"
        },
        {
          "internalType": "string",
          "name": "_photoUrl",
          "type": "string"
        }
      ],
      "name": "submitReport",
      "outputs": [
        {
          "internalType": "uint256",
          "name": "",
          "type": "uint256"
        }
      ],
      "stateMutability": "nonpayable",
      "type": "function"
    },
    {
      "inputs": [
        {
          "internalType": "uint256",
          "name": "_reportId",
          "type": "uint256"
        }
      ],
      "name": "getReport",
      "outputs": [
        {
          "internalType": "string",
          "name": "fullName",
          "type": "string"
        },
        {
          "internalType": "string",
          "name": "lastSeenDate",
          "type": "string"
        },
        {
          "internalType": "string",
          "name": "lastSeenLocation",
          "type": "string"
        },
        {
          "internalType": "string",
          "name": "photoUrl",
          "type": "string"
        },
        {
          "internalType": "address",
          "name": "reporter",
          "type": "address"
        }
      ],
      "stateMutability": "view",
      "type": "function"
    },
    {
      "inputs": [],
      "name": "getTotalReports",
      "outputs": [
        {
          "internalType": "uint256",
          "name": "",
          "type": "uint256"
        }
      ],
      "stateMutability": "view",
      "type": "function"
    }
  ],
  "bytecode": "0x6080604052348015600e575f5ffd5b505f6001819055506113d8806100235f395ff3fe608060405234801561000f575f5ffd5b5060043610610055575f3560e01c8063040e623114610059578063185c6f84146100895780634e7f9b19146100a7578063c942adf7146100db578063d4e9950014610110575b5f5ffd5b610073600480360381019061006e9190610b06565b61012e565b6040516100809190610bf2565b60405180910390f35b6100916103cf565b60405161009e9190610bf2565b60405180910390f35b6100c160048036038101906100bc9190610c35565b6103d5565b6040516100d2959493929190610cff565b60405180910390f35b6100f560048036038101906100f09190610c35565b610735565b60405161010796959493929190610d86565b60405180910390f35b6101186109b0565b6040516101259190610bf2565b60405180910390f35b5f5f855111610172576040517f08c379a000000000000000000000000000000000000000000000000000000000815260040161016990610e4b565b60405180910390fd5b5f8451116101b5576040517f08c379a00000000000000000000000000000000000000000000000000000000081526004016101ac90610eb3565b60405180910390fd5b5f8351116101f8576040517f08c379a00000000000000000000000000000000000000000000000000000000081526004016101ef90610f1b565b60405180910390fd5b5f82511161023b576040517f08c379a000000000000000000000000000000000000000000000000000000000815260040161023290610f83565b60405180910390fd5b6001805f82825461024c9190610fce565b925050819055506040518060c001604052808681526020018581526020018481526020018381526020013373ffffffffffffffffffffffffffffffffffffffff168152602001600115158152505f5f60015481526020019081526020015f205f820151815f0190816102be91906111fe565b5060208201518160010190816102d491906111fe565b5060408201518160020190816102ea91906111fe565b50606082015181600301908161030091906111fe565b506080820151816004015f6101000a81548173ffffffffffffffffffffffffffffffffffffffff021916908373ffffffffffffffffffffffffffffffffffffffff16021790555060a08201518160040160146101000a81548160ff0219169083151502179055509050503373ffffffffffffffffffffffffffffffffffffffff167fa267c32f41765b47c7956cf4c7fc90f75c1ab31db0629a8d792a8a3afc1078b7600154878787876040516103ba9594939291906112cd565b60405180910390a26001549050949350505050565b60015481565b6060806060805f5f5f8781526020019081526020015f2060040160149054906101000a900460ff1661043c576040517f08c379a000000000000000000000000000000000000000000000000000000000815260040161043390611384565b60405180910390fd5b5f5f5f8881526020019081526020015f206040518060c00160405290815f820180546104679061102e565b80601f01602080910402602001604051908101604052809291908181526020018280546104939061102e565b80156104de5780601f106104b5576101008083540402835291602001916104de565b820191905f5260205f20905b8154815290600101906020018083116104c157829003601f168201915b505050505081526020016001820180546104f79061102e565b80601f01602080910402602001604051908101604052809291908181526020018280546105239061102e565b801561056e5780601f106105455761010080835404028352916020019161056e565b820191905f5260205f20905b81548152906001019060200180831161055157829003601f168201915b505050505081526020016002820180546105879061102e565b80601f01602080910402602001604051908101604052809291908181526020018280546105b39061102e565b80156105fe5780601f106105d5576101008083540402835291602001916105fe565b820191905f5260205f20905b8154815290600101906020018083116105e157829003601f168201915b505050505081526020016003820180546106179061102e565b80601f01602080910402602001604051908101604052809291908181526020018280546106439061102e565b801561068e5780601f106106655761010080835404028352916020019161068e565b820191905f5260205f20905b81548152906001019060200180831161067157829003601f168201915b50505050508152602001600482015f9054906101000a900473ffffffffffffffffffffffffffffffffffffffff1673ffffffffffffffffffffffffffffffffffffffff1673ffffffffffffffffffffffffffffffffffffffff1681526020016004820160149054906101000a900460ff1615151515815250509050805f01518160200151826040015183606001518460800151955095509550955095505091939590929450565b5f602052805f5260405f205f91509050805f0180546107539061102e565b80601f016020809104026020016040519081016040528092919081815260200182805461077f9061102e565b80156107ca5780601f106107a1576101008083540402835291602001916107ca565b820191905f5260205f20905b8154815290600101906020018083116107ad57829003601f168201915b5050505050908060010180546107df9061102e565b80601f016020809104026020016040519081016040528092919081815260200182805461080b9061102e565b80156108565780601f1061082d57610100808354040283529160200191610856565b820191905f5260205f20905b81548152906001019060200180831161083957829003601f168201915b50505050509080600201805461086b9061102e565b80601f01602080910402602001604051908101604052809291908181526020018280546108979061102e565b80156108e25780601f106108b9576101008083540402835291602001916108e2565b820191905f5260205f20905b8154815290600101906020018083116108c557829003601f168201915b5050505050908060030180546108f79061102e565b80601f01602080910402602001604051908101604052809291908181526020018280546109239061102e565b801561096e5780601f106109455761010080835404028352916020019161096e565b820191905f5260205f20905b81548152906001019060200180831161095157829003601f168201915b505050505090806004015f9054906101000a900473ffffffffffffffffffffffffffffffffffffffff16908060040160149054906101000a900460ff16905086565b5f600154905090565b5f604051905090565b5f5ffd5b5f5ffd5b5f5ffd5b5f5ffd5b5f601f19601f8301169050919050565b7f4e487b71000000000000000000000000000000000000000000000000000000005f52604160045260245ffd5b610a18826109d2565b810181811067ffffffffffffffff82111715610a3757610a366109e2565b5b80604052505050565b5f610a496109b9565b9050610a558282610a0f565b919050565b5f67ffffffffffffffff821115610a7457610a736109e2565b5b610a7d826109d2565b9050602081019050919050565b828183375f83830152505050565b5f610aaa610aa584610a5a565b610a40565b905082815260208101848484011115610ac657610ac56109ce565b5b610ad1848285610a8a565b509392505050565b5f82601f830112610aed57610aec6109ca565b5b8135610afd848260208601610a98565b91505092915050565b5f5f5f5f60808587031215610b1e57610b1d6109c2565b5b5f85013567ffffffffffffffff811115610b3b57610b3a6109c6565b5b610b4787828801610ad9565b945050602085013567ffffffffffffffff811115610b6857610b676109c6565b5b610b7487828801610ad9565b935050604085013567ffffffffffffffff811115610b9557610b946109c6565b5b610ba187828801610ad9565b925050606085013567ffffffffffffffff811115610bc257610bc16109c6565b5b610bce87828801610ad9565b91505092959194509250565b5f819050919050565b610bec81610bda565b82525050565b5f602082019050610c055f830184610be3565b92915050565b610c1481610bda565b8114610c1e575f5ffd5b50565b5f81359050610c2f81610c0b565b92915050565b5f60208284031215610c4a57610c496109c2565b5b5f610c5784828501610c21565b91505092915050565b5f81519050919050565b5f82825260208201905092915050565b8281835e5f83830152505050565b5f610c9282610c60565b610c9c8185610c6a565b9350610cac818560208601610c7a565b610cb5816109d2565b840191505092915050565b5f73ffffffffffffffffffffffffffffffffffffffff82169050919050565b5f610ce982610cc0565b9050919050565b610cf981610cdf565b82525050565b5f60a0820190508181035f830152610d178188610c88565b90508181036020830152610d2b8187610c88565b90508181036040830152610d3f8186610c88565b90508181036060830152610d538185610c88565b9050610d626080830184610cf0565b9695505050505050565b5f8115159050919050565b610d8081610d6c565b82525050565b5f60c0820190508181035f830152610d9e8189610c88565b90508181036020830152610db28188610c88565b90508181036040830152610dc68187610c88565b90508181036060830152610dda8186610c88565b9050610de96080830185610cf0565b610df660a0830184610d77565b979650505050505050565b7f46756c6c206e616d6520697320726571756972656400000000000000000000005f82015250565b5f610e35601583610c6a565b9150610e4082610e01565b602082019050919050565b5f6020820190508181035f830152610e6281610e29565b9050919050565b7f4c617374207365656e20646174652069732072657175697265640000000000005f82015250565b5f610e9d601a83610c6a565b9150610ea882610e69565b602082019050919050565b5f6020820190508181035f830152610eca81610e91565b9050919050565b7f4c617374207365656e206c6f636174696f6e20697320726571756972656400005f82015250565b5f610f05601e83610c6a565b9150610f1082610ed1565b602082019050919050565b5f6020820190508181035f830152610f3281610ef9565b9050919050565b7f50686f746f2055524c20697320726571756972656400000000000000000000005f82015250565b5f610f6d601583610c6a565b9150610f7882610f39565b602082019050919050565b5f6020820190508181035f830152610f9a81610f61565b9050919050565b7f4e487b71000000000000000000000000000000000000000000000000000000005f52601160045260245ffd5b5f610fd882610bda565b9150610fe383610bda565b9250828201905080821115610ffb57610ffa610fa1565b5b92915050565b7f4e487b71000000000000000000000000000000000000000000000000000000005f52602260045260245ffd5b5f600282049050600182168061104557607f821691505b60208210810361105857611057611001565b5b50919050565b5f819050815f5260205f209050919050565b5f6020601f8301049050919050565b5f82821b905092915050565b5f600883026110ba7fffffffffffffffffffffffffffffffffffffffffffffffffffffffffffffffff8261107f565b6110c4868361107f565b95508019841693508086168417925050509392505050565b5f819050919050565b5f6110ff6110fa6110f584610bda565b6110dc565b610bda565b9050919050565b5f819050919050565b611118836110e5565b61112c61112482611106565b84845461108b565b825550505050565b5f5f905090565b611143611134565b61114e81848461110f565b505050565b5b81811015611171576111665f8261113b565b600181019050611154565b5050565b601f8211156111b6576111878161105e565b61119084611070565b8101602085101561119f578190505b6111b36111ab85611070565b830182611153565b50505b505050565b5f82821c905092915050565b5f6111d65f19846008026111bb565b1980831691505092915050565b5f6111ee83836111c7565b9150826002028217905092915050565b61120782610c60565b67ffffffffffffffff8111156112205761121f6109e2565b5b61122a825461102e565b611235828285611175565b5f60209050601f831160018114611266575f8415611254578287015190505b61125e85826111e3565b8655506112c5565b601f1984166112748661105e565b5f5b8281101561129b57848901518255600182019150602085019450602081019050611276565b868310156112b857848901516112b4601f8916826111c7565b8355505b6001600288020188555050505b505050505050565b5f60a0820190506112e05f830188610be3565b81810360208301526112f28187610c88565b905081810360408301526113068186610c88565b9050818103606083015261131a8185610c88565b9050818103608083015261132e8184610c88565b90509695505050505050565b7f5265706f727420646f6573206e6f7420657869737400000000000000000000005f82015250565b5f61136e601583610c6a565b91506113798261133a565b602082019050919050565b5f6020820190508181035f83015261139b81611362565b905091905056fea26469706673582212204f12f6402c18927fb37ac0c17833403075bf49c6f2145619da9e5222050810c464736f6c634300081c0033",
  "immutableReferences": {},
  "source": "// SPDX-License-Identifier: MIT\r\npragma solidity ^0.8.0;\r\n\r\ncontract MissingPersonRegistry {\r\n    struct Report {\r\n        string fullName;\r\n        string lastSeenDate;\r\n        string lastSeenLocation;\r\n        string photoUrl;\r\n        address reporter;\r\n        bool exists;\r\n    }\r\n\r\n    mapping(uint256 => Report) public reports;\r\n    uint256 public reportCount;\r\n\r\n    event NewReport(uint256 reportId, string fullName, string lastSeenDate, string lastSeenLocation, string photoUrl, address indexed reporter);\r\n\r\n    constructor() {\r\n        reportCount = 0;\r\n    }\r\n    \r\n    function submitReport(\r\n        string memory _fullName,\r\n        string memory _lastSeenDate,\r\n        string memory _lastSeenLocation,\r\n        string memory _photoUrl\r\n    ) public returns (uint256){\r\n        require(bytes(_fullName).length > 0, \"Full name is required\");\r\n        require(bytes(_lastSeenDate).length > 0, \"Last seen date is required\");\r\n        require(bytes(_lastSeenLocation).length > 0, \"Last seen location is required\");\r\n        require(bytes(_photoUrl).length > 0, \"Photo URL is required\");\r\n\r\n        reportCount += 1;\r\n        reports[reportCount] = Report({\r\n            fullName: _fullName,\r\n            lastSeenDate: _lastSeenDate,\r\n            lastSeenLocation: _lastSeenLocation,\r\n            photoUrl: _photoUrl,\r\n            reporter: msg.sender,\r\n            exists: true\r\n        });\r\n\r\n        emit NewReport(reportCount, _fullName, _lastSeenDate, _lastSeenLocation, _photoUrl, msg.sender);\r\n\r\n        return reportCount;\r\n    }\r\n    \r\n    function getReport(uint256 _reportId)\r\n        public\r\n        view\r\n        returns (\r\n            string memory fullName,\r\n            string memory lastSeenDate,\r\n            string memory lastSeenLocation,\r\n            string memory photoUrl,\r\n            address reporter\r\n        )\r\n    {\r\n        require(reports[_reportId].exists, \"Report does not exist\");\r\n        Report memory report = reports[_reportId];\r\n        return (\r\n            report.fullName,\r\n            report.lastSeenDate,\r\n            report.lastSeenLocation,\r\n            report.photoUrl,\r\n            report.reporter\r\n        );\r\n    }\r\n \r\n    function getTotalReports() public view returns (uint256) {\r\n        return reportCount;\r\n    }\r\n}\r\n",
  "sourcePath": "D:\\3rd Sem works\\Tracesafe\\backend\\contracts\\MissingPersonRegistry.sol",
  "compiler": {
    "name": "solc",
    "version": "0.8.28+commit.7893614a.Emscripten.clang"
  },
  "schemaVersion": "3.4.16",
  "updatedAt": "2024-11-28T10:35:18.389Z",
  "devdoc": {
    "kind": "dev",
    "methods": {},
    "version": 1
  },
  "userdoc": {
    "kind": "user",
    "methods": {},
    "version": 1
  }
}